:400000000010002011000000290200002902000008B500F00BF9C04610B5124C22688023DB0213432360182000F034FA22680E4B134023600D4A0E4B1A6010220D4B1A602F
:40004000802212060C4B1A600C4A0D4B1A6009200C4900F005FA092000F0F6F900220A4B1A6010BD00010B40FFFFFBFF0600008004010B403002024008010B403300008005
:4000800000000240A90600000C020B4038B572B60024334D0CE063001B195B00EB1899881A8858880004104300F026F90134E4B2012CF0D900242A4D0C3510E0A3001B19EF
:4000C0005B00EB181A885888000410439A88D988090411431A8900F015F90134E4B2002CECD01F49081C1830383100F0E9F8802252001C4B1A8001221B4B1A70C022920304
:400100001A4B1A60EE221202194B1A60194A1A4B1A6080229204194B1A6099221204184B1A60184B197802220A431A70164A11783C208143142001431170197816220A43D1
:400140001A702022114B1A60C4229202104B1A60D82212010F4B1A60FFF75EFF38BDC046D807000000600F4002600F40000001400C0001400400990000500F4004500F40B3
:4001800030500F4000700F4001700F4000000440080004400803044010B5064C2378002B07D1054B002B02D0044800E000BF0123237010BDE000002000000000BC070000DE
:4001C00008B5084B002B03D00748084900E000BF07480368002B03D0064B002B00D0984708BDC04600000000BC070000E4000020C80000200000000010B562B600F0C0F8D0
:40020000074800F0EDF8074C00F0CAF80028FBD0431CD8B200F0D8F8201C00F0E1F8F3E7C0070000D4070000FEE7C046F8B50F4F0F4E002412E031687368B568221C02E05E
:4002400001C901C30432AA42FAD1F168221C01E010C304328A42FBD11036013F002FEAD100F074FAFFF7C8FFFEE7C04601000000F00A000038B500230D4C0E4D0E4808E077
:40028000032B02D89A00515900E0211C9A00115001332F2BF4D9FFF7F9FE0022074B1A608023DB05196801220A431A6038BDC046290200000000000000000020C000002090
:4002C000F0B500220027FF239C4611E0BB00C658F3B26446A64308E054000C192578AD1964782C700132013BDBB2002BF4D10137072FEBD9F0BDC04608B50A1C002100F009
:4003000054FA08BD08B500F047FA08BD7222074B1A702022064B1A700622064B1A704722054B1A700022054B1A70704780000F4081000F4022000F4032000F4083000F400E
:4003400010B500F077F8041C0A4B197820220A431A70094B197810221143C9B21970074B19780A43D2B21A7000F04EF8201C00F065F810BD90000F4091000F4093000F4060
:4003800008B5064B1B78002B04D1FFF7BFFF0122024B1A70FFF7D4FF08BDC046FC000020074B1B78DBB29A0606D5064A1078C0B21E221A4202D102E0002000E000207047DF
:4003C00061000F4040000F40034904220B781342FCD1024B1870704763000F4043000F4038B5051C074B1B78002B05D108E0FFF7EBFF0134A4B200E00024285D0028F6D118
:4004000038BDC046FC000020034B1968802212060A431A607047C04600000240000000000230800804D0C0460138FDD1C046C046C0467047EFF3108072B6704780F3108896
:400440007047C046C046C0461F23184001238340181C014B1860704700E100E001BE704738B5041C0D1C1F2802D90020FFF7F6FFA400024BE4182068256038BD400000209A
:4004800008B5034B1B7A5843FFF7CAFF08BDC046CC000020F0B557464E464546E0B4041CFFF7C8FF8046E51E2D2D73D83F4B1B78DBB2A34208D33E4B1B78DBB29A463D4BD0
:4004C0001B78DBB2994631E03B4B1B78DBB2A34208D33A4B1B78DBB29A46394B1B78DBB2994623E0374B1B78DBB2A34208D3364B1B78DBB29A46354B1B78DBB2994615E024
:40050000334B1B78DBB2A34208D3324B1B78DBB29A46314B1B78DBB2994607E02F4B1B78DBB29A462E4B1B78DBB299462D4B5E5D2F2E09D92A2C07D919222B4B1A60052094
:40054000FFF76EFF192703E0274B1F683F231F40BE4206D2234B5A5D234B1A600520FFF75FFF1F4AA4182278D2B2204B1A60204B52461A601F4B4A461A600520FFF780FF2A
:40058000BE420AD9174B5A5D174B1A600520FFF747FF02E00020FFF761FF4046FFF74EFF1CBC90469946A246F0BDC046C0F1FF0FC1F1FF0FC2F1FF0FC3F1FF0FC4F1FF0FF4
:4005C000C5F1FF0FC6F1FF0FC7F1FF0FC8F1FF0FC9F1FF0FCAF1FF0FCBF1FF0FCCF1FF0FCDF1FF0F9C0A00002CFF0B4028FF0B401CFF0B4020FF0B40044B1A68C0231B02C4
:400600001A4201D0012000E00020704700010B4008B5FFF70FFF044B1968C02212020A431A60FFF70BFF08BD00010B4010B5FFF701FF084B1968084A11408024E4012143EB
:40064000196019680A40802109020A431A60FFF7F5FE10BD00010B40FF3FFFFF38B5051CFFF7E8FE041CFFF7C7FF002803D0FFF7DDFF012200E00022084B1D40084B18684A
:40068000084901400D431D601B68012A01D1FFF7BFFF201CFFF7D2FE38BDC0460404040010020B40FBFBFBFF10B5244B1B685A0715D5234B1B685A070ED5224B9C69042282
:4006C00014401F490868A0430860996991439961DB68002B00D098470420FFF7BFFF174B1B685A0518D5164B1B685A0510D5154B9A698020C0001040114A11688143116049
:400700009969114A0A409A611B69002B00D098478020C000FFF7A2FF084B1B685A030CD5074B1B685A0304D5064B5B69002B00D098478020C002FFF791FF10BD10020B40A2
:40074000DC00002000010020FFFBFFFF70B50E4B0E4D0024ED1AAD101E1CAC4204D0A300F35898470134F8E700F0B0F9084B094D0024ED1AAD101E1CAC4204D0A300F358B2
:4007800098470134F8E770BDD80A0000D80A0000D80A0000E00A000010B50023934203D0CC5CC4540133F9E710BD031C8218934202D019700133FAE7704700000000000023
:4007C000456E7465722061206368617261637465720A0D000A0D000080300F40800300400F40000400300F401C0A00008000000003000F4012300F4038310F4069320F40C0
:4008000045330F4004400F4004410F4002600F4080728138830F80048E0292019A02A201AC08AF01B001B101B202B404B608BE55D418D804D904DB04DF010064050107021B
:4008400009600A100B400E400F8410801201132814011502180419261A101B401E041F852020210422142342274029242A012D8031203204334038283A023B4040014124D6
:40088000424049204B0451015A205D02670A6954709472027328C097C25FC49FCA17CC0ECE0FD00FD204D684D83003080620080C09800A710B130CDC0E22112C12031343E1
:4008C0001B0C201022402409257126D0270E281429712B062C102EAC301F33C034E03530370F39283A203B803F104003454049FF4A074BFF4C404D204EF04F055008580484
:4009000059045A045F01604061A8624063208020810182C0830A8513861588E089138C408D108E209013920C941395029604970998809A209C0A9E14A003A214A304A4E028
:40094000AA08B0E0B20FB303B510B610B70CBA08BE40BF40C013C102C5E0C6BCC80EC9FFCAFFCBFFCEF0CF44D00CD401D804D904DA04DB04DF01E6C0EA40EB020112021108
:40098000051006100702080209400A080B200C010E4010801104132014121521184019821B081D101E401F302001212822042540272A29022F2831083410372239543A018E
:4009C0003D013E20400242204320470849014D0150805110563059815A045B108C828F189154920494419A019C019D01A528A980AA01AF80B148C0EFC21FC4FECA61CCA284
:400A0000CEAFD04ED60F0A406302C210D640AA40AF01E820EE1010011101000000100000F3180C00FF080000C33C00421C00E3000F7FF0000000F303820000040804000068
:400A4000043C00410C67001841000000C01F2C000F201C400080280A0000001062030400010E00C021FFFFFF62A0F0410C0000000000021104040404000000010000000018
:400A800000004002001030100010101200000000000000000000000000000000030405060708090A0B0C0E0F101112131415161718191B1C1D1E1F20212223252627282963
:400AC0002A2B2E2F3031323334350000F8B5C046F8BC08BC9E467047C101000075020000F8B5C046F8BC08BC9E46704799010000000B0000C800002018000000400000006B
:400B0000000000000000E02EC05D00001800000000366E010404040000000000000000000000000000000000000000000000000000000000000000000000000000000000C1
:400B40000000000000000000000000000000000000000000000000000000000000000000000000000000000000000000000000000000000000000000000000000000000075
:400B80000000000000000000000000000000000000000000000000000000000000000000000000000000000000000000000000000000000000000000000000000000000035
:400BC00000000000000000000000000000000000000000000000000000000000000000000000000000000000000000000000000000000000000000000000000000000000F5
:400C000000000000000000000000000000000000000000000000000000000000000000000000000000000000000000000000000000000000000000000000000000000000B4
:0200000490303A
:0200000087B5C2
:0200000490402A
:200000000000000000000000000000000000000000000000000000000000000000000000E0
:0200000490501A
:0C000000000204C81193110104CB9948C0
:0200000490600A
:0100000001FE
:00000001FF